:100000000040002085040000C5040000C704000073
:1000100000000000000000000000000000000000E0
:10002000000000000000000000000000C904000003
:100030000000000000000000CB040000CD04000020
:10004000CF040000CF040000CF040000CF04000064
:10005000CF04000000000000CF040000CF04000027
:10006000CF040000CF040000CF040000CF04000044
:10007000CF040000CF040000CF040000CF04000034
:10008000CF040000CF040000CF040000CF04000024
:10009000CF040000CF040000CF040000CF04000014
:1000A000CF040000CF0400000000000000000000AA
:1000B0000000000000000000000000000000000040
:1000C00008B5054B054803331B1A062B03D9044B0F
:1000D000002B00D0984708BD3804002038040020C9
:1000E000000000000648074908B5091A8910CB0F1F
:1000F0005918491003D0044B002B00D0984708BD75
:1001000038040020380400200000000010B5074C1F
:100110002378002B09D1FFF7D3FF054B002B02D02A
:10012000044800E000BF0123237010BD3804002004
:10013000000000002008000008B5094B002B03D088
:100140000848094900E000BF08480368002B02D1B5
:10015000FFF7C8FF08BD064B002BF9D09847F7E71B
:1001600000000000200800003C04002034040020AF
:1001700000000000144B002B00D1124B9D46402282
:1001800092029A1A924600218B460F461148124A53
:10019000121A00F0F3F90D4B002B00D098470C4BCE
:1001A000002B00D098470020002104000D000B48D0
:1001B00000F08EF900F0BEF92000290000F010F8E0
:1001C00000F08EF900000800004000200000000050
:1001D0000000000038040020540400200105000045
:1001E00080B582B000AF04237B6015E0A023DA0560
:1001F00001217B6899400B1C191CA323DB00D15003
:10020000A023DB0501217A6891400A1C111C314AA8
:1002100099507B6801337B607B680F2BE6DDA02360
:10022000DB052D4A00219950A023DA05ED23DB00E0
:100230000021D15000233B60A023DA05A223DB007C
:10024000D2588023DB041A40A023D905ED23DB001C
:10025000CB589A4214D1A023DA05A123DB008021D8
:100260008901D150A023DA05A123DB008021C90137
:10027000D150A023DA05A123DB0080210902D1504F
:10028000A023DA05A223DB00D25880239B021A4068
:10029000A023DB0510495B589A4211D1A023DB054E
:1002A0000C49802292015A50A023DB050949802283
:1002B000D2015A50A023DB050649802212025A506F
:1002C000064B3B603B68013B3B603B68002BF9D130
:1002D000B2E7C0460C0500004407000010270000EC
:1002E00080B500AF00F034F8031E06D0124B134A5D
:1002F0001A60134B802212021A6000F069F8031E84
:1003000005D08023DA05C123DB000121D15000F0A4
:1003100085F8031E0ED00B4B1B68012B07D0094B31
:10032000094A1A60C046074B1B68012BFBD1074BDB
:10033000C0221A60BD4680BD04050040DFFF07C033
:10034000186C004000EC06407593000014EC064069
:1003500080B500AF1A4B1B68FF221340012B2AD136
:10036000184B1B680F22134025D1174B1B68F02236
:10037000134006D1154B1B68F022134001D1012315
:100380001AE0114B1B68F0221340102B06D10F4BC3
:100390001B68F022134001D101230DE00A4B1B68BA
:1003A000F0221340302B06D1084B1B68F02213407B
:1003B00001D1012300E00023181CBD4680BDC046CA
:1003C000E00F00F0E40F00F0E80F00F0EC0F00F099
:1003D00080B500AF0D4B1B68FF221340012B11D1DC
:1003E0000B4B1B680F2213400CD10A4B1B68F022E9
:1003F0001340402B06D1084B1B68F022134001D15B
:10040000012300E00023181CBD4680BDE00F00F072
:10041000E40F00F0E80F00F0EC0F00F080B500AF43
:10042000144B1B68FF221340012B1ED1124B1B687B
:100430000F22134019D1114B1B68F0221340A02B3F
:1004400006D10F4B1B68F022134001D101230DE0B0
:100450000A4B1B68F0221340D02B06D1084B1B68B7
:10046000F022134001D1012300E00023181CBD46F7
:1004700080BDC046E00F00F0E40F00F0E80F00F090
:10048000EC0F00F003210A4802680A4302600948A1
:1004900002680A4302600849084A094B9B1A03DDB7
:1004A000043BC858D050FBDCFFF71AFFFFF762FE91
:1004B00024050040540500402C08000000000020E6
:1004C00038040020FEE7FEE7FEE7FEE7FEE7FEE772
:1004D00008B5011C00220020002300F095F808BD9B
:1004E00010B50021041C00F005F9044B1868C36B1B
:1004F000002B00D09847201C00F080F91C08000059
:1005000038B5094B094CE41AA41009D0084AA518BB
:10051000AD00ED182B68013C9847043D002CF9D143
:1005200000F074F938BDC0463004002034040020C7
:10053000FFFFFF3F70B50D4E0D4D0024AD1BAD10FC
:1005400005D0A300F35801349847A542F9D100F033
:1005500057F9084E084D0024AD1BAD1005D0A3007F
:10056000F35801349847A542F9D170BD2804002002
:1005700028040020280400203004002070B58307E0
:100580003FD0541E002A3BD0CEB2031C032503E00B
:10059000621E002C34D0141C01335A1E16702B42DC
:1005A000F6D1032C24D9FF250D402A0215432A0435
:1005B00015430F2C11D9261C103E36090136360181
:1005C0001A1C9B19156055609560D56010329342D6
:1005D000F8D10F221440032C0AD9261FB608013681
:1005E000B6001A1C9B1920C29342FCD1032214406E
:1005F000002C05D0C9B21C1919700133A342FBD1DC
:1006000070BD141C031CCCE7F8B544465F46564643
:100610004D469B462F4BF0B41C68A4235B00051C81
:10062000E0580E1C904600284BD043681F2B0DDC71
:100630005C1C002D21D102339B0044601E50002021
:100640003CBC90469946A246AB46F8BD224B002BD7
:100650003CD0C820400000E000BF002836D0A422D3
:1006600000235200A15843600160A05040328350E3
:10067000043283500124002DDDD09A00914681443C
:10068000424688214F467A50C42252009046804408
:1006900042468739994012688A460A439446424640
:1006A00061461160842249465F4652008F50022DF8
:1006B000C1D1021C55468D32FF3211680D431560C1
:1006C000B9E7201C4D30FF30E050AEE7012040423A
:1006D000B6E7C0461C0800000000000008B5034B48
:1006E000002B02D00248FFF7F3FE08BD0000000017
:1006F00001050000F0B556465F464D464446F0B44D
:100700000E1C3C4B87B01B68019003934933FF33A9
:100710000493A422039B52009F58002F4CD0049BAB
:10072000984600239B46C4235B009C46BC4463461A
:100730000293C6235B009A467C68BA44A5007D19E3
:10074000013C08D526E06B1DFF331B68B34204D083
:10075000043D013C1ED3002EF5D17B686A68013B45
:10076000A3423AD05B466B60002AF1D07B680299C5
:1007700099460123A34009680591194223D1904766
:100780007B684B45C5D143461B68BB42C1D1043D84
:10079000013CE0D2184B002B0ED07B68002B23D1FC
:1007A0003B68002B24D04246381C136000E000BF99
:1007B00043461F68002FB6D107B03CBC904699460F
:1007C000A246AB46F0BD51460968194207D12B1C21
:1007D0008433196801989047D2E77C60C4E72B1CEA
:1007E000843318689047CBE73B68B8461F1CE1E7A5
:1007F0000023FAE71C08000000000000FEE7C046E6
:10080000F8B5C046F8BC08BC9E467047F8B5C0466F
:10081000F8BC08BC9E467047430000000000002062
:0408200000000000D4
:0808240050F9FF7F0100000004
:10082C0000000000EC02002054030020BC03002058
:10083C0000000000000000000000000000000000AC
:10084C00000000000000000000000000000000009C
:10085C00000000001808000000000000000000006C
:10086C00000000000000000000000000000000007C
:10087C00000000000000000000000000000000006C
:10088C00000000000000000000000000000000005C
:10089C00000000000000000000000000000000004C
:1008AC00000000000000000000000000000000003C
:1008BC00000000000000000000000000000000002C
:1008CC00000000000000000001000000000000001B
:1008DC000E33CDAB34126DE6ECDE05000B000000E0
:1008EC0000000000000000000000000000000000FC
:1008FC0000000000000000000000000000000000EC
:10090C0000000000000000000000000000000000DB
:10091C0000000000000000000000000000000000CB
:100C4C000000000000000000DD060000390100007B
:080C5C000D0100000000000082
:040000030000048570
:00000001FF
